{
  "contractName": "Wallet",
  "abi": [
    {
      "constant": true,
      "inputs": [],
      "name": "t2",
      "outputs": [
        {
          "name": "",
          "type": "uint256"
        }
      ],
      "payable": false,
      "stateMutability": "view",
      "type": "function"
    },
    {
      "constant": true,
      "inputs": [],
      "name": "t1",
      "outputs": [
        {
          "name": "",
          "type": "uint256"
        }
      ],
      "payable": false,
      "stateMutability": "view",
      "type": "function"
    },
    {
      "constant": false,
      "inputs": [
        {
          "name": "_u_id",
          "type": "uint256"
        },
        {
          "name": "_syn",
          "type": "uint256"
        },
        {
          "name": "_pan",
          "type": "uint256"
        },
        {
          "name": "_ipfs_hash",
          "type": "uint256"
        }
      ],
      "name": "setDocument",
      "outputs": [],
      "payable": false,
      "stateMutability": "nonpayable",
      "type": "function"
    },
    {
      "constant": false,
      "inputs": [
        {
          "name": "_u_id",
          "type": "uint256"
        },
        {
          "name": "_ipfs_hash",
          "type": "string"
        }
      ],
      "name": "setResults",
      "outputs": [],
      "payable": false,
      "stateMutability": "nonpayable",
      "type": "function"
    },
    {
      "constant": false,
      "inputs": [
        {
          "name": "_u_id",
          "type": "uint256"
        }
      ],
      "name": "setComplianceData",
      "outputs": [],
      "payable": false,
      "stateMutability": "nonpayable",
      "type": "function"
    },
    {
      "constant": true,
      "inputs": [],
      "name": "setCompliance",
      "outputs": [
        {
          "name": "",
          "type": "uint256[]"
        },
        {
          "name": "",
          "type": "uint256[3][]"
        }
      ],
      "payable": false,
      "stateMutability": "view",
      "type": "function"
    },
    {
      "constant": false,
      "inputs": [],
      "name": "setVerification",
      "outputs": [],
      "payable": false,
      "stateMutability": "nonpayable",
      "type": "function"
    },
    {
      "constant": true,
      "inputs": [
        {
          "name": "_u_id",
          "type": "uint256"
        },
        {
          "name": "_p_id",
          "type": "uint256"
        }
      ],
      "name": "getDocument",
      "outputs": [
        {
          "name": "",
          "type": "uint256"
        },
        {
          "name": "",
          "type": "uint256"
        },
        {
          "name": "",
          "type": "uint256"
        }
      ],
      "payable": false,
      "stateMutability": "view",
      "type": "function"
    },
    {
      "constant": true,
      "inputs": [
        {
          "name": "_u_id",
          "type": "uint256"
        },
        {
          "name": "_p_id",
          "type": "uint256"
        }
      ],
      "name": "getResult",
      "outputs": [
        {
          "name": "",
          "type": "string"
        }
      ],
      "payable": false,
      "stateMutability": "view",
      "type": "function"
    },
    {
      "constant": true,
      "inputs": [
        {
          "name": "_u_id",
          "type": "uint256"
        }
      ],
      "name": "getVerificationStatus",
      "outputs": [
        {
          "name": "",
          "type": "bool"
        }
      ],
      "payable": false,
      "stateMutability": "view",
      "type": "function"
    },
    {
      "constant": true,
      "inputs": [],
      "name": "getDocumentNo",
      "outputs": [
        {
          "name": "",
          "type": "uint256"
        }
      ],
      "payable": false,
      "stateMutability": "view",
      "type": "function"
    },
    {
      "constant": true,
      "inputs": [],
      "name": "getResultNo",
      "outputs": [
        {
          "name": "",
          "type": "uint256"
        }
      ],
      "payable": false,
      "stateMutability": "view",
      "type": "function"
    }
  ],
  "bytecode": "0x608060405234801561001057600080fd5b50610b4e806100206000396000f3006080604052600436106100ba576000357c0100000000000000000000000000000000000000000000000000000000900463ffffffff1680630f53ce01146100bf5780631d9425ca146101185780636949c0a21461015d57806385cb06ac14610234578063870a2d2e146102a75780638d0ad5b2146102d2578063949f80c5146102e9578063baf2f86814610399578063dc154c4f146103c4578063de8556a7146103f1578063f1d741291461041c578063fb5343f314610467575b600080fd5b3480156100cb57600080fd5b506100f46004803603810190808035906020019092919080359060200190929190505050610492565b60405180848152602001838152602001828152602001935050505060405180910390f35b34801561012457600080fd5b50610143600480360381019080803590602001909291905050506104f8565b604051808215151515815260200191505060405180910390f35b34801561016957600080fd5b5061017261054f565b604051808060200180602001838103835285818151815260200191508051906020019060200280838360005b838110156101b957808201518184015260208101905061019e565b505050509050018381038252848181518152602001915080516000925b8184101561022157828490602001906020020151600360200280838360005b838110156102105780820151818401526020810190506101f5565b5050505090500192600101926101d6565b9250505094505050505060405180910390f35b34801561024057600080fd5b506102a560048036038101908080359060200190929190803590602001908201803590602001908080601f0160208091040260200160405190810160405280939291908181526020018383808284378201915050505050509192919290505050610741565b005b3480156102b357600080fd5b506102bc6107aa565b6040518082815260200191505060405180910390f35b3480156102de57600080fd5b506102e76107b4565b005b3480156102f557600080fd5b5061031e6004803603810190808035906020019092919080359060200190929190505050610878565b6040518080602001828103825283818151815260200191508051906020019080838360005b8381101561035e578082015181840152602081019050610343565b50505050905090810190601f16801561038b5780820380516001836020036101000a031916815260200191505b509250505060405180910390f35b3480156103a557600080fd5b506103ae610959565b6040518082815260200191505060405180910390f35b3480156103d057600080fd5b506103ef6004803603810190808035906020019092919050505061095f565b005b3480156103fd57600080fd5b5061040661098e565b6040518082815260200191505060405180910390f35b34801561042857600080fd5b5061046560048036038101908080359060200190929190803590602001909291908035906020019092919080359060200190929190505050610997565b005b34801561047357600080fd5b5061047c610a37565b6040518082815260200191505060405180910390f35b600080600060018414156104f0576002600086815260200190815260200160002060010154600260008781526020019081526020016000206002015460026000888152602001908152602001600020600301549250925092506104f1565b5b9250925092565b6000806000809150600090505b6005805490508110156105455760058181548110151561052157fe5b906000526020600020015484141561053857600191505b8080600101915050610505565b8192505050919050565b60608060008090505b6003805490508110156106585760046060604051908101604052806002600060038681548110151561058657fe5b90600052602060002001548152602001908152602001600020600101548152602001600260006003868154811015156105bb57fe5b90600052602060002001548152602001908152602001600020600201548152602001600260006003868154811015156105f057fe5b906000526020600020015481526020019081526020016000206003015481525090806001815401808255809150509060018203906000526020600020906003020160009091929091909150906003610649929190610a3d565b50508080600101915050610558565b60036004818054806020026020016040519081016040528092919081815260200182805480156106a757602002820191906000526020600020905b815481526020019060010190808311610693575b5050505050915080805480602002602001604051908101604052809291908181526020016000905b82821015610732578382906000526020600020906003020160038060200260405190810160405280929190826003801561071e576020028201915b81548152602001906001019080831161070a575b5050505050815260200190600101906106cf565b50505050905092509250509091565b60026000838152602001908152602001600020600601819080600181540180825580915050906001820390600052602060002001600090919290919091509080519060200190610792929190610a7d565b50506001600081548092919060010191905055505050565b6000600154905090565b60016002600060036001600380549050038154811015156107d157fe5b9060005260206000200154815260200190815260200160002060040160006101000a81548160ff0219169083151502179055506005600360016003805490500381548110151561081d57fe5b90600052602060002001549080600181540180825580915050906001820390600052602060002001600090919290919091505550600360016003805490500381548110151561086857fe5b9060005260206000200160009055565b6060600182141561095257600260008481526020019081526020016000206006016001548154811015156108a857fe5b906000526020600020018054600181600116156101000203166002900480601f0160208091040260200160405190810160405280929190818152602001828054600181600116156101000203166002900480156109465780601f1061091b57610100808354040283529160200191610946565b820191906000526020600020905b81548152906001019060200180831161092957829003601f168201915b50505050509050610953565b5b92915050565b60015481565b600381908060018154018082558091505090600182039060005260206000200160009091929091909150555050565b60008054905090565b82600260008681526020019081526020016000206001018190555080600260008681526020019081526020016000206003018190555081600260008681526020019081526020016000206002018190555060006002600086815260200190815260200160002060040160006101000a81548160ff021916908315150217905550610a208461095f565b600080815480929190600101919050555050505050565b60005481565b8260038101928215610a6c579160200282015b82811115610a6b578251825591602001919060010190610a50565b5b509050610a799190610afd565b5090565b828054600181600116156101000203166002900490600052602060002090601f016020900481019282601f10610abe57805160ff1916838001178555610aec565b82800160010185558215610aec579182015b82811115610aeb578251825591602001919060010190610ad0565b5b509050610af99190610afd565b5090565b610b1f91905b80821115610b1b576000816000905550600101610b03565b5090565b905600a165627a7a72305820b50a99f05cb2c285c8178c3b6529fddfc0e57bbadc79461fd6cc403713ee56ee0029",
  "source": "pragma solidity ^0.4.18;\n\ncontract Wallet {\n\n    uint public t1; \n    uint public t2; \n        \n    struct user{\n        uint u_id;\n        uint syn;\n        uint pan;\n        uint ipfs_hash;\n        bool verified;\n        uint[] req_list;\n        string[] results;\n    }\n\n    mapping (uint => user) u1;\n    uint[] to_be_verified; \n    uint[3][] total_docs;\n    uint[] verified;\n        \n    function setDocument(uint _u_id,uint _syn,uint _pan,uint _ipfs_hash) public {\n        u1[_u_id].syn = _syn;\n        u1[_u_id].ipfs_hash = _ipfs_hash;\n        u1[_u_id].pan = _pan;\n        u1[_u_id].verified = false;\n        setComplianceData(_u_id);\n        t1++;\n    }\n\n    function setResults(uint _u_id,string _ipfs_hash) public {\n        u1[_u_id].results.push(_ipfs_hash);\n        t2++;\n    }\n\n    function setComplianceData(uint _u_id) public {\n        to_be_verified.push(_u_id);\n    }\n    \n    function setCompliance() public view returns(uint[],uint[3][]) { \n        \n        for (uint i = 0;i < to_be_verified.length;i++){\n            total_docs.push([u1[to_be_verified[i]].syn,u1[to_be_verified[i]].pan,u1[to_be_verified[i]].ipfs_hash]);\n        }\n        return (to_be_verified,total_docs);\n    }\n    \n    function setVerification() public{\n        u1[to_be_verified[to_be_verified.length-1]].verified = true;\n        verified.push(to_be_verified[to_be_verified.length-1]);\n        delete to_be_verified[to_be_verified.length-1];  \n    }\n\n    function getDocument(uint _u_id,uint _p_id) public view returns(uint, uint,uint) {\n        if (_p_id==1)\n            return (u1[_u_id].syn,u1[_u_id].pan,u1[_u_id].ipfs_hash);\n    }\n\n    function getResult(uint _u_id,uint _p_id) public view returns(string) {\n        if (_p_id==1)  \n            return (u1[_u_id].results[t2]);\n    }\n\n    function getVerificationStatus(uint _u_id) public view returns(bool) {\n        bool val = false;\n        for(uint i = 0; i < verified.length;i++){\n            if (_u_id==verified[i]){\n                val = true;\n            }\n        }\n        return val;\n    }\n\n    function getDocumentNo() public view returns(uint256) {\n        return (t1);\n    }\n    function getResultNo() public view returns(uint256) {\n        return (t2);\n    }\n}\n",
  "sourcePath": "/home/swap/hackathon_entry/contracts/Wallet.sol",
  "compiler": {
    "name": "solc",
    "version": "0.4.24+commit.e67f0147.Emscripten.clang"
  },
  "schemaVersion": "2.0.1",
  "updatedAt": "2018-12-21T12:20:45.666Z"
}